:020000040800F2
:10000000980500209D010008DF2C00088D1F0008C6
:10001000DD2C0008510700086936000800000000C8
:10002000000000000000000000000000B52F0008E4
:100030005307000800000000012D00081D300008D3
:10004000B7010008B7010008B7010008B7010008B0
:10005000B7010008B7010008B7010008B7010008A0
:10006000B7010008B7010008B7010008B701000890
:10007000B7010008B7010008B7010008B701000880
:10008000B7010008B7010008B7010008B701000870
:10009000B7010008B7010008B7010008B701000860
:1000A000B7010008B7010008B7010008B701000850
:1000B000FD30000809310008B70100089D1F000845
:1000C000911F0008B7010008B7010008B701000838
:1000D000B7010008B7010008B7010008B701000820
:1000E000B7010008B7010008B7010008B701000810
:1000F000B7010008B7010008B7010008B701000800
:10010000B7010008B7010008B7010008B7010008EF
:10011000B7010008B7010008B7010008B7010008DF
:10012000B7010008B7010008B7010008B7010008CF
:10013000B7010008B7010008B7010008B7010008BF
:10014000B7010008B7010008B7010008B7010008AF
:10015000B7010008B7010008B7010008B70100089F
:10016000B7010008B7010008B7010008B70100088F
:10017000B7010008B7010008B7010008000000003F
:10018000B7010008B7010008DFF80CD000F0CEFA84
:1001900000480047453D0008980500200648804774
:1001A00006480047FEE7FEE7FEE7FEE7FEE7FEE75C
:1001B000FEE7FEE7FEE7FEE7B93000088901000828
:1001C0002DE9F05F0546002092469B46884606468C
:1001D000814640241BE0284641464746224600F01F
:1001E00026FA53465A46C01A914110D31146184672
:1001F000224600F00DFA2D1A67EB01084F46224601
:100200000120002100F004FA17EB00094E41201EE6
:10021000A4F10104DFDC484631462A46434600F09B
:1002200000B830BCBDE8C09F2DE9FE4F804681EA92
:100230000300C00F0C46009021F0004123F0004560
:10024000B8EB0200A94105D24046214690461C4623
:100250000B46024623F00040104347D0270DC7F35A
:100260000A00C3F30A510290401A019040286BDA49
:10027000C3F3130040F4801B0098924620B1002382
:10028000D2EB030A63EB0B0B01985946C0F1400215
:10029000504600F0BDF906460D4650465946019AB3
:1002A00000F0D5F910EB08006141002487EA1152F3
:1002B00084EAE7731A4340D0009A62B3019A012A94
:1002C0004FEA075215DC001B61EB02014FF00042C0
:1002D00002EA0752CDE90042001C41F58011324686
:1002E0002B4600F0D5F903B000F045B84046214652
:1002F000F9E7001B61EB0201001C41F580130018B7
:100300005B412018A2F5001747EB030140EAD570C6
:10031000B6196D4111E06D084FEA360645EAC07521
:100320004FEA0752001B61EB0201001C41F58011EE
:1003300049084FEA30000019514132462B4603B0BC
:1003400000F01CB800F095B900980122400000238D
:10035000D0EB020263EBE073009821464FEAE074B1
:10036000B8EB000061EB0401E9E783F000435BE7D1
:1003700081F0004158E730BCBDE8C08F30BCBDE81B
:10038000C04FFFF7DFBF2DE9FE4F81EA030404F001
:10039000004421F0004100944FF0000B23F0004393
:1003A00050EA01045ED052EA03045BD0C3F30A545E
:1003B000C1F30A552C44A4F2F3340194A0FB025477
:1003C000C1F3130141F48011C3F3130343F4801309
:1003D00001FB024400FB034E840A970A44EA81545D
:1003E00047EA8357A4FB076802958D0A05FB07853A
:1003F0004FEA932C04FB0C542705029D4FEA065844
:1004000047EA1637B5EB08056EEB070C870E920E20
:1004100047EA811742EA8312A7FB0201B6EB0B0100
:1004200064EB00042B0D43EA0C335E1844EB1C50C4
:10043000DA465146E7FB0201C5F313044FEA0B33DA
:1004400043EA14534FEA0432019C43EA0603A4F141
:100450000C040294009CCDE900B400F019F903B03B
:1004600000F003B800200146F9E730BCBDE8C08FBA
:100470002DE9F04D81EA030404F0004B21F0004522
:1004800014464FF0000A23F0004150EA050220D044
:1004900054EA01021DD0C5F30A570246C5F31303FF
:1004A000C1F31300C1F30A5640F4801543F48013DE
:1004B000A7EB0608101BD64608F2FD3873EB0500C3
:1004C00002D308F1010801E092185B41B8F1000F76
:1004D00003DA00200146BDE8F08D00204FF48011C2
:1004E000064684460EE0171B73EB050705D3121B67
:1004F00063EB050306434CEA010C49084FEA300060
:1005000092185B4150EA0107EDD152EA030012D084
:1005100082EA040083EA0501084305D0101BAB41C1
:1005200006D20122002306E000224FF0004302E041
:100530006FF0010253101AEB06004CEB085110EB60
:100540000A0041EB0B01BDE8F04D00F092B80EB58A
:10055000C10F80EAE0700844CA07002140F233432B
:100560008DE80E000A460B4600F092F803B000BD7D
:1005700070B5C1F30A5201F000450024C1F3130124
:1005800040F2FF3341F480119A4201DA002070BD3D
:1005900040F233439A42A2F2334203DC524200F06B
:1005A00046F800E090402C43F1D0404270BDC1F3CA
:1005B0000A5210B5C1F3130140F2FF3341F4801128
:1005C0009A4201DA002010BD40F233439A42A2F26F
:1005D000334203DC524200F02AF810BD904010BDB7
:1005E00030B5041E71F1000404DB4FF000444042BA
:1005F00064EB0101141E73F1000405DB1C464FF08F
:100600000043524263EB04038B4208BF824230BD79
:10061000202A04DB203A00FA02F1002070479140C2
:10062000C2F1200320FA03F3194390407047202AB7
:1006300004DB203A21FA02F00021704721FA02F38C
:10064000D040C2F120029140084319467047202A49
:1006500006DBCB17203A41FA02F043EAE07306E0EA
:1006600041FA02F3D040C2F12002914008431946FA
:10067000704710B5141E73F1000408DA401C41F1F4
:10068000000192185B411A4301D120F0010010BD16
:100690002DE9F04D92469B4611B1B1FA81F202E08C
:1006A000B0FA80F220329046FFF7B2FF04460F46C0
:1006B00040EA0A0041EA0B0153465A46084313D068
:1006C000114653EA010019D0C8F140025046FFF725
:1006D000AEFF05460E46504659464246FFF798FF84
:1006E000084305D0012004E020463946BDE8F08DDE
:1006F0000020054346EAE0762C4337430A98630519
:10070000E40AA0EB08000022FD0A44EA47540A303C
:1007100002D500200146E9E7010510196941DDE92C
:10072000084500196941BDE8F04DA2E7064C074DA8
:1007300006E0E06840F0010394E8070098471034B1
:10074000AC42F6D3FFF724FD084100082841000819
:10075000FEE7704710B590F825100024022903D059
:100760000421C16301241AE001680A6822F00E0224
:100770000A6001680A6822F001020A6090F84410D9
:10078000036C01F01C02012101FA02F25A6080F8A8
:100790002510002180F82410816B01B18847204684
:1007A00010BD00002DE9F84FDFF898B100234FF09D
:1007B000010C4FF0030A4FF00F090BF1040EB9E0E2
:1007C0000CFA03F4224070D04D68022D01D0122D96
:1007D0000ED1DD0800EB8508D8F820505E07F70E33
:1007E00009FA07F6B5430E69BE402E43C8F82060EB
:1007F00007685E0091F804800AFA06F508F003081D
:10080000AF4308FA06F848EA0708C0F800804F68C6
:10081000012F05D0022F03D0112F01D0122F13D199
:10082000D0F80880CF6828EA0508B74047EA0807EB
:100830008760D0F804800F7928EA0408C7F300170E
:100840009F4047EA08074760D1F804806FEA08072D
:10085000BF0706D1C76AA743C8F3C0049C403C4306
:10086000C462C468AC438D68B5402543C5604C681C
:10087000E4005ED5344C256E45F001052566246EF6
:1008800023F0030504F001040094304C2E19B468E1
:100890009D072F0F09FA07F5AC43B0F1904F05D033
:1008A0002B4DA84204D101251CE042E0002519E0AF
:1008B000284DA84201D1022514E0274DA84201D1BC
:1008C00003250FE0254DA84201D104250AE0244D5F
:1008D000A84201D1052505E0224DA84201D10625F7
:1008E00000E00725BD402543B560DBF800405D46CC
:1008F0004E689443F60300D514432C60DEF80040A4
:1009000075464E689443B60300D514432C600D4DD4
:1009100008352C684E689443F60200D514432C60C9
:10092000084D0C352C684E689443B60200D514432C
:100930002C605B1C0A6832FA03F57FF441AF00F0CB
:1009400013B8000000040140001002400000014004
:100950000004004800080048000C0048001000484F
:10096000001400480018004818BCBDE8E08F0AB128
:1009700081617047816270470148006870470000DC
:100980003800002090F84120202A24D190F84020FF
:10099000012A20D0012280F84020242280F8412022
:1009A0000268136823F0010313600268136823F4DC
:1009B00080531360026813680B43136001680A6870
:1009C00042F001020A60202180F84110002180F8E5
:1009D0004010084670470220704790F84120202AB6
:1009E00022D190F84020012A1ED0012280F8402018
:1009F000242280F841200268136823F00103136069
:100A00000268136823F4706343EA012111600168EE
:100A10000A6842F001020A60202180F8411000219A
:100A200080F84010084670470220704770477047B2
:100A300030B403689A691968D243D40509D4CC4309
:100A4000240606D4446C44F0010444644FF48074DA
:100A5000DC6153050AD4CB431B0607D4436C43F037
:100A60000803436404684FF48063E36192050AD489
:100A7000C943090607D4416C41F002014164026890
:100A80004FF40071D161416C11F00B0F02D030BCFA
:100A900001F04CBB30BC7047026891691268436B2F
:100AA000002B00D0184770477047000070B5040055
:100AB00004D094F84100002510B106E0012070BD7B
:100AC00084F84050204600F06DF9242084F841005D
:100AD0002068016821F0010101606068216820F050
:100AE000706008612068816821F400418160E068DD
:100AF0000128A06807D040F4044021688860E068BD
:100B0000022803D006E040F40040F6E721684FF4E5
:100B10000060486020684168114A114341602068C4
:100B2000C16821F40041C160D4E904010843A1690E
:100B300040EA01202168C860D4E907010843216820
:100B400008602068016841F00101016065642020AF
:100B500084F84100256384F84250002070BD0000F5
:100B60000080000270477047704770477047000070
:100B70002DE9FC470446DDE90A7690F841009846E5
:100B800091468A46202850D13FB336B32068806909
:100B9000C043000449D594F84000012845D0012005
:100BA00084F840002434FFF7E7FE222161774021DA
:100BB000A1770025256244F8067B26801C49C4F8ED
:100BC00002101C49C4F80A1034F82A19FF2908D960
:100BD000FF2121854FF0807607E04FF400706064BC
:100BE0000FE0618D21854FF000761921CDE90010CD
:100BF00043464A465146204601F0B6FD20B184F8EE
:100C00004050012000F01AB80B48009094F82820BA
:100C100033465146204601F005FF84F8405002213A
:100C2000204601F0FFF90020ECE70220EAE700008F
:100C30000000FFFF41260008002400800CBCBDE836
:100C4000F08700002DE9FF4F83B00446DDE91087EF
:100C500090F84100DDF848909A469346202871D1DB
:100C60005FEA080014D09FB194F84000012869D0D1
:100C7000012084F84000FFF77FFE06460122009025
:100C80001923D103204601F0E3FE00286ED103E0D2
:100C90004FF40070606469E0212084F84100402036
:100CA00084F8420000256564C4F824806785656384
:100CB000CDE9009653465A462046049901F086FD38
:100CC00010B184F8405051E0608DFF274FF08078DC
:100CD0004FF0007AFF2804D927853A46434600950D
:100CE00005E0608D2085009594F828205346204625
:100CF000049901F097FE32464946204601F0FAFE7B
:100D0000A0BB606A216800788862606A401C6062EB
:100D1000608D401E6085208D401E80B22085618DD3
:100D2000D9B1D0B94B46002280212046009601F06F
:100D30008FFED8B9608DFF2805D927853A464346EE
:100D4000009506E026E0608D2085009594F8282027
:100D500053462046049901F065FE608D0028CAD1F3
:100D600032464946204601F09FFE18B1012007B0E7
:100D700000F014B820682021C16120684268064B49
:100D80001A40426084F8411084F8425084F8405080
:100D90000020ECE70220EAE700E800FE30BCBDE8F6
:100DA000C08F000000B50068164987B0884226D180
:100DB000C020009012200190012002900320039097
:100DC0000420049069461048FFF7ECFC0F48816D41
:100DD00041F400118165806D002200F4001005903F
:100DE00011461F2000F092F81F2000F083F8002227
:100DF0001146202000F08AF8202000F07BF807B090
:100E000000BD0000005400400004004800100240F3
:100E10007047704702480168491C01607047000034
:100E20003800002010B50024032000F08FF80020C7
:100E300000F008F808B1012401E000F01BF820469A
:100E400010BD000070B5054609484FF47A710024C2
:100E50000068B0FBF1F000F0E6FD08B1012404E009
:100E600000222946501E00F051F8204670BD0000B7
:100E70003C0000201E4808B5016E41F001010166EA
:100E8000016E01F001010091816D41F08051816599
:100E9000806D00F080500090032000F057F8002291
:100EA00011466FF00B0000F031F8002211466FF090
:100EB0000A0000F02BF8002211466FF0090000F044
:100EC00025F800221146501F00F020F8002211469C
:100ED000101F00F01BF800221146901E00F016F8BB
:100EE0000022BDE808401146501E00F00FB8000077
:100EF0000010024000F01F020121914040098000D3
:100F000000F1E020C0F8001170470000F0B40E4B73
:100F10001B680C46C3F30223C3F10705042D00D957
:100F20000425191D072901D2002300E0DB1E01263C
:100F300006FA05F1491E214099409E40761E164052
:100F40003143F0BC01F0CCBE0CED00E0064900F0EE
:100F5000070208684FF6FF03184040EA0220034AE0
:100F600010430860704700000CED00E00000FA0537
:100F70001649B0F5007F0868C0F3412009D0022867
:100F800005D0086820F4C06040F48060086000204C
:100F900070470128FBD0086820F4C06040F400705E
:100FA00008600B483222006850430A4AB0FBF2F056
:100FB000401C00E0401E4A69520501D50028F9D1C5
:100FC00048694005E3D503207047000000700040E9
:100FD0003C00002040420F000248006800F4C0605E
:100FE00070470000007000402DE9F84F04460027CC
:100FF0000088E54D3E46010504F1200B1DD5606ECD
:1010000078B1B0F5800F11D0B0F5000F04D0B0F575
:10101000400F22D001270FE0E86840F48030E860FC
:101020001BE00021201D01F06DFE03E00021584669
:1010300001F0FEFE070010D03E462088C00426D5F1
:10104000A06EC0B1B0F1807F1AD0B0F1007F0DD09A
:10105000B0F1407F19D0012718E0D5F88800616E03
:1010600020F440000843C5F88800E6E7E86840F44B
:101070008030E86009E00021201D01F043FE03E01C
:101080000021584601F0D4FE0746F7B13E462068DD
:1010900080033AD5A86D4FF00008C00009D4A86DB0
:1010A00040F08050A865A86D4FF0010800F0805016
:1010B0000090DFF8D8A2DAF8001041F48071CAF885
:1010C0000010FFF759FC814610E0D5F88800A16EAA
:1010D00020F040700843C5F88800D8E7FFF74CFCC3
:1010E000A0EB0900022801D9032705E0DAF8000087
:1010F000C005F3D5002F7CD04FEA0706B8F1000FEA
:1011000003D0A86D20F08050A8652078C00707D0D4
:10111000D5F88800A16B20F003000843C5F88800CB
:101120002078800707D5D5F88800E16B20F00C0007
:101130000843C5F888002078400707D5D5F888000F
:10114000216C20F030000843C5F8880020780007A3
:1011500007D5D5F88800616C20F0C0000843C5F8B9
:1011600088002078C00607D5D5F88800A16C20F447
:1011700040700843C5F888002078800607D5D5F868
:101180008800E16C20F440600843C5F8880020889E
:10119000800507D5D5F88800E16D20F4402008438C
:1011A000C5F888002088400507D5D5F88800216E4D
:1011B00020F440100843C5F888002078400607D581
:1011C000D5F88800216D20F440500843C5F8880008
:1011D0002078000607D5D5F88800616D20F44040DE
:1011E0000843C5F888002088C00509D5D5F88800CF
:1011F00000E01CE0A16D20F440300843C5F88800F1
:1012000020884FF0006780044FF080684FD5D5F8F4
:101210008800E16E20F040600843C5F88800E06E69
:10122000B8423CD1E86840F48010E8603FE0D5F86F
:10123000900010F4407015D0D4F88410814211D081
:10124000D5F89000D5F8901020F4407041F480312A
:10125000C5F89010D5F8901021F48031C5F89010A1
:10126000C5F89000C00710D0FFF786FB074641F293
:10127000883906E0FFF780FBC11B494501D90326E9
:101280003CE7D5F890008007F4D5D5F89000D4F865
:10129000841020F440700843C5F890002EE74045C4
:1012A00005D10121201D01F02DFD00B10646206869
:1012B000000317D5D5F88800216F20F0406008435F
:1012C000C5F88800206FB84204D1E86840F4801067
:1012D000E86007E0404505D10121201D01F012FD25
:1012E00000B106462068400317D5D5F88800616F25
:1012F00020F040600843C5F88800606FB84204D110
:10130000E86840F48010E86007E0404505D101211D
:10131000201D01F0F7FC00B10646208840041AD5D4
:10132000D5F88800A16F20F040500843C5F8880028
:10133000A06FB0F1805F03D0B0F1005F05D00AE08C
:101340000221201D01F0DEFC03E00221584601F0DD
:101350006FFD00B106462088000407D5D5F8880047
:10136000E16F20F080400843C5F888002068C00382
:1013700007D555F8880FD4F8801020F000400843B6
:101380002860304600F004B80010024000700040B1
:1013900018BCBDE8E08F00002DE9F0470F460500BE
:1013A00058D03F4E306800F00700B84209D230688C
:1013B00020F0070038433060306800F00700B84282
:1013C00048D12878374CC0072CD06868032811D042
:1013D000022812D0216898B1490500293ADAA1689B
:1013E00021F003010143A160FFF7C6FA804641F2F4
:1013F000883910E021688901EFE721688903ECE76B
:101400008907EAE7FFF7B8FAA0EB0801494502D9D6
:101410000320BDE8F087A068696800F00C00B0EB1D
:10142000810FEFD12878800705D5A068A96820F042
:10143000F0000843A060306800F00700B8420BD904
:10144000306820F0070038433060306800F0070053
:10145000B84201D00120DCE72878400705D5A06814
:10146000E96820F4E0600843A0602878000706D50A
:10147000A068296920F4605040EAC100A06000F033
:1014800041F8A168084AC1F30311515C01F01F0142
:10149000C84006490860BDE8F0470020FFF7D2BC0D
:1014A0000020024000100240204000083C000020C4
:1014B00001480068704700003C00002005480649CC
:1014C00000688968054AC1F30221515C01F01F01DF
:1014D000C84070473C0000200010024060400008F7
:1014E0000548064900688968054AC1F3C221515C74
:1014F00001F01F01C84070473C000020001002406E
:101500006040000870B52549002318468A68CC68F9
:1015100012F00C0204F00306214C4FEA640509D0D6
:101520000C2A05D0042A26D0082A00D1284670BDEE
:10153000012E10D10B681B0704D4D1F89430C3F3EB
:10154000032302E00B68C3F30313164E56F823304F
:101550007AB10C2AEBD1C86800F00302C868C0F366
:101560000210401C022A08D0032A09D0B3FBF0F075
:1015700008E0184670BD204670BDB4FBF0F001E0F5
:10158000B5FBF0F0CA68C968C2F306225043C1F344
:101590004161491C4900B0FBF1F070BD00100240F0
:1015A0000024F400304000082DE9F84305007CD009
:1015B000FD4CA06800F00C06E06800F003072878F6
:1015C000C00661D576B10C2E01D1012F0AD0A869D1
:1015D0000028206878D040F001002060FFF7CCF9A7
:1015E000804659E02068800702D5A8690028DED02F
:1015F000286A2168090703D5216801F0F00104E099
:10160000D4F89410F02202EA1111884215D901F0A1
:1016100093FC002849D1206840F008002060206831
:10162000296A20F0F000084320606068E96920F42E
:101630007F4040EA0120606015E0206840F008002B
:1016400020602068296A20F0F0000843206060686C
:10165000E96920F47F4040EA01206060286A01F0D7
:101660006BFC0028D6D1FFF74DFFA168CF4AC1F32C
:101670000311515C01F01F01C840CD4908600020F2
:10168000FFF7E0FB00287DD12FE000BFFFF774F9E2
:10169000A0EB0800022876D820688007F6D52068DD
:1016A00040F008002060206801E0BBE00CE0296AFF
:1016B00020F0F000084320606068E96920F47F4072
:1016C00040EA0120606010E020F001002060FFF798
:1016D00053F9804606E000BFFFF74EF9A0EB080083
:1016E0000228D8D820688007F6D42878C00740D0D0
:1016F000082E18D00C2E01D1032F14D06868B0F535
:10170000803F17D0B0F5A02F206817D020F480308C
:101710002060206820F4802020606868E0B1FFF736
:101720002BF9804614E02068800322D568680028E1
:1017300078D01EE0206840F48030EDE740F480204F
:101740002060F7E7FFF718F9A0EB08006428A2D89B
:1017500020688003F6D50CE0FFF70EF9804605E01F
:10176000FFF70AF9A0EB0800642894D820688003EA
:10177000F6D4287880073BD5042E11D00C2E04D146
:10178000022F01E036E1A1E00AD0E86800282068D5
:101790001ED040F480702060FFF7EEF807460CE0A2
:1017A000206840050CD5E8680028C1D008E000BFDB
:1017B000FFF7E2F8C01B022893D820684005F7D550
:1017C0006068297C20F0F85040EA016060600FE01A
:1017D00020F480702060FFF7CFF8074605E000BFD7
:1017E000FFF7CAF8C01B022870D820684005F7D45C
:1017F0002878000729D568690028D4F8940012D009
:1018000040F00100C4F89400FFF7B6F8074604E082
:10181000FFF7B2F8C01B022858D8D4F8940080070C
:10182000F6D512E0EDE020F00100C4F89400FFF7D7
:10183000A3F8074605E000BFFFF79EF8C01B02288B
:1018400044D8D4F894008007F6D42878400768D5A7
:10185000A06D0027C00008D4A06D40F08050A065A6
:10186000A06D012700F08050009052480168C90522
:1018700012D40168814641F480710160FFF77CF861
:10188000804605E0FFF778F8A0EB080002281DD895
:10189000D9F80000C005F5D5A868012817D005289B
:1018A000D4F8900018D020F00100C4F89000D4F8CB
:1018B000900020F0040000BFC4F89000A86841F236
:1018C0008839D0B1FFF758F8804611E06BE0D4F8C2
:1018D000900040F00100EFE740F00400C4F89000F1
:1018E000F5E700BFFFF748F8A0EB080149455AD8D3
:1018F000D4F890008007F5D50EE0FFF73DF880465C
:1019000006E000BFFFF738F8A0EB0801494570D8A2
:10191000D4F890008007F5D41FB1A06D20F080505E
:10192000A065A86AF0B30C2E6BD00228206820F0C6
:101930008070206004D0206810F0205F47D04AE01B
:10194000FFF71AF8064604E0FFF716F8801B022896
:101950004FD820688001F7D4286BE96A000110385D
:101960000843696BAA6B0902120941EA4241084324
:10197000A98F114A490802EB4151084395F84010DC
:101980004908120102EB41610843E060206840F021
:1019900080702060E06840F08070E060FEF7ECFF4F
:1019A000054610E02BE024E0001002402040000833
:1019B0003C000020007000400000E0FFFEF7DCFF6C
:1019C000401B022815D820688001F7D517E0E06891
:1019D00020F00300E060E0680B490840E060FEF79B
:1019E000CBFF054608E000BFFEF7C6FF401B0228FC
:1019F00002D90320BDE8F88320688001F4D40020D8
:101A0000F8E70120F6E70000FFFFEEFE4FF0E021CF
:101A10000428086903D020F004000861704740F0F2
:101A20000400FAE7704710B5401EB0F1807F01D383
:101A3000012010BD4FF0E02460610F21601701F01C
:101A40004FF90020A06107202061002010BD10B5D3
:101A5000FFF7E8FF10BD70477047704770B590F80A
:101A60003C20012A24D0012480F83C40022280F846
:101A70003D200268536895680E4EB24202D00E4E69
:101A8000B24203D123F470064B68334323F070064F
:101A90000B688968334325F0800529435360026849
:101AA000916080F83D40002180F83C10084670BDF0
:101AB000022070BD002C01400034014010B504002C
:101AC00003D094F83D0010B107E0012010BD0020C4
:101AD00084F83C00204600F00DF8022084F83D0018
:101AE000211D206801F016FB012084F83D00002034
:101AF00010BD000008B501681448B1F1804F14D042
:101B0000134A914220D1816D41F002018165806DBF
:101B1000002200F00200009011461D20FFF7F6F9A8
:101B20001D20BDE80840FFF7E5B9816D41F00101D6
:101B30008165806D002200F00100009011461C209C
:101B4000FFF7E4F91C20ECE708BD0000001002409C
:101B5000000400400168CA6842F00102CA600068DF
:101B6000826807490A40062A08D082680A40B2F50E
:101B7000803F03D0016841F00101016000207047FF
:101B80000700010070B5044690F83C00012817D00A
:101B9000012584F83C50022084F83D0020688268CA
:101BA000324E324022F47F4282600868502839D099
:101BB0000DDC202855D005DC98B3102843D150E027
:101BC000022070BD30284CD040283CD141E0602834
:101BD00030D070280CD0B0F5805F03D0B0F5005F36
:101BE00031D112E020688168204A7032114016E03D
:101BF000CB68D1E90121206801F0ECFA21688868FE
:101C0000304040F0770088601DE0CB68D1E90121C9
:101C1000206801F0DFFA2068816841F4804181602A
:101C200011E01EE0CA684968206801F0E5FA502119
:101C3000206806E0CA684968206801F0EEFA602171
:101C4000206801F0D1FA84F83D50002084F83C006F
:101C500070BDCA684968206801F0CEFA402120684A
:101C6000EFE7226801461046EBE7000088FFFEFF21
:101C7000704770B50446006801694FF00005C9431C
:101C8000890715D4C168C943890711D4E91E0161C8
:101C900001202077206880698007204602D0FFF766
:101CA000E7FF04E000F0A7F8204600F0A5F825774C
:101CB00020680169C943490717D4C168C943490766
:101CC00013D46FF00401016102202077206880693D
:101CD00010F4407F204602D0FFF7CAFF04E000F076
:101CE0008AF8204600F088F8257720680169C94302
:101CF000090716D4C168C943090712D46FF0080157
:101D00000161042020772068C0698007204602D046
:101D1000FFF7AEFF04E000F06EF8204600F06CF82C
:101D2000257720680169C943C90617D4C168C9432A
:101D3000C90613D46FF010010161082020772068D4
:101D4000C06910F4407F204602D0FFF791FF04E005
:101D500000F051F8204600F04FF82577206801691F
:101D6000C943C90708D1C168C943C90704D1891E3D
:101D70000161204600F042F820680169C943090664
:101D800009D4C168C943090605D46FF08001016117
:101D90002046FFF761FE20680169C943C90509D4DF
:101DA000C168C943090605D46FF4807101612046FA
:101DB000FFF751FE20680169C943490609D4C1688B
:101DC000C943490605D46FF040010161204600F087
:101DD00029F820680169C94389060BD4C168C94341
:101DE000890607D46FF0200101612046BDE87040EC
:101DF000FFF733BE70BD70477047000010B5024654
:101E00000068B0F1804F01D102F0FAF8044910687F
:101E1000884203D1BDE8104001F0D6BF10BD0000DC
:101E200000040040704710B5040003D094F871001E
:101E300010B107E0012010BD002084F8700020469A
:101E400000F026F8242084F871002068016821F051
:101E500001010160204601F085FA0128EBD0606A9B
:101E600010B1204601F0EBF92068416821F490415F
:101E700041602068816821F02A0181602068016842
:101E800041F0010101602046BDE8104001F03BBA7D
:101E900000B500680E4987B0884216D10D48816DA3
:101EA00041F400318165806D694600F40030059091
:101EB00060200090022001900020029003200390F7
:101EC000072004900448FEF76DFC07B000BD000039
:101ED0000044004000100240000C00482DE9F84387
:101EE000044690F871001F4616460D4620284BD137
:101EF000C5B1BEB194F87000012845D0012084F826
:101F000070004FF00008C4F87480212084F871003C
:101F1000FEF732FDA4F850608146A4F852604FF4F9
:101F2000805615E00120BDE8F8838021204601F0AD
:101F300069FBD8B9A068B04201D12069C0B115F8D9
:101F4000010B21680885B4F85200401EA4F8520025
:101F5000B4F852004B464FF0000200970028E4D13D
:101F60004FF04001204601F04DFB30B10320DAE78D
:101F700035F8020BC0F30800E3E7202084F8710075
:101F800084F870800020CEE70220CCE7FEE7000056
:101F90000148FEF74DBD0000400000200148FEF75B
:101FA0007BBD00004000002010B5806A0021826BDC
:101FB0009163C26B916390F84110602902D0FEF7E3
:101FC00073FD10BD202180F84110FEF72FFD10BDDC
:101FD00010B50022CC074FF0280306D090F84140FE
:101FE000422233EA040400D0F2228C0707D590F88D
:101FF000414042F04402A34301D042F0B0024B07FB
:1020000001D542F0B80211238B4301D142F0900276
:1020100012238B4301D142F06002006801689143B2
:10202000016010BD30B5144D1223446B00228B4368
:10203000AC4202D0114DAC420BD14C0700D5B822B6
:1020400011248C4301D142F0900283B942F0600226
:102050000DE04C0700D5B822CC0701D042F0F202C7
:10206000890701D542F0F4020BB942F02002006862
:1020700001681143016030BD312500083128000896
:1020800001688A69D243920701D400228A620068FB
:102090008169C943C90703D0816941F001018161A8
:1020A00070472DE9F041044690F841002821814312
:1020B00020684FF000054FF0080304D0C36184F896
:1020C0004050BDE8F0818169C1F300478169FE227B
:1020D00002EA11468168C1F30902C168D4F80CC054
:1020E00001F0FE01BCF1020F17D14FF0060C06F013
:1020F00006060CEAD21C66450ED1A16C491CA164EF
:10210000A16C0229DDD1A564C36184F84050394631
:102110002046FEF78CFCD4E70E4604212046FFF74C
:1021200057FF84F840503246F1E7000070B504468E
:1021300090F84100002584F84250314AE2626585FA
:10214000626C0A4362642026282825D0292823D0DF
:102150002A2821D007212046FFF73AFF94F84100B2
:10216000602801D084F841602563656320680168B8
:102170004A04244902681AD522F480420260A06B06
:10218000002833D0816384F84050A06BFEF7E2FA58
:1021900000282BD0A06B1CE003212046FFF718FF7E
:1021A000282084F84100256317486063DEE71204A5
:1021B00013D5026822F400420260E06B002815D0BB
:1021C000816384F84050E06BFEF7C4FA00280DD01C
:1021D000E06B816BBDE87040084794F841006028CF
:1021E00005D084F840502046FEF75EFC70BD84F8B0
:1021F000416084F840502046FEF718FC70BD000096
:102200000000FFFFA91F00080529000870B504465B
:102210001548E06200252563202084F8410084F8F9
:102220004250C8436563400711D42068406A616A20
:102230000870606A401C6062208D40B1401E20859D
:10224000608D401E6085606C40F004006064072172
:102250002046FFF7BDFE21681020C86184F8405079
:102260002046FEF77FFC70BD0000FFFF70B50446FE
:1022700000682026C66120684268274B1A404260E9
:102280000025256325486563E062C843C00606D47F
:1022900021681020C861606C40F004006064204632
:1022A000FFF7EEFE03212046FFF792FE606C94F8E4
:1022B0004110602900D028B1616C2046BDE8704013
:1022C000FFF734BF94F84100212811D094F8410061
:1022D00022280CD184F8416094F8420084F84250DE
:1022E000402884F84050204613D0FEF73CFC70BDD7
:1022F00084F8416094F8420084F84250402884F801
:102300004050204602D0FEF72FFC70BDFEF72EFC99
:1023100070BDFEF72AFC70BD00E800FE0000FFFF64
:1023200070B50025044680F8425090F841102020F6
:10233000212984F841000CD012202063022120467C
:102340006563FFF745FE84F840502046FEF70BFC1E
:1023500070BD11202063012120466563FFF738FE20
:1023600084F840502046FEF7FFFB70BD2DE9F04198
:10237000044600680E4607682025C56121680820CC
:10238000C86107212046FFF723FE2068416841F419
:1023900000414160206841682D4A1140416020465B
:1023A000FFF76EFEF843410401D4A06B02E0000485
:1023B00004D4E06B10B1006840686085F0434007CA
:1023C0000DD42068406A616A0870606A401C6062CF
:1023D000208D20B1401E2085608D401E6085608D5F
:1023E00018B1606C40F0040060640020206384F841
:1023F00042006063616C69B1616C2046FFF796FE34
:1024000094F84100282811D131462046BDE8F0411A
:10241000FFF7FCBEE26A0F498A4209D0E16284F804
:10242000415084F840002046FEF79CFBBDE8F08157
:1024300094F8411084F84150222984F84000204645
:1024400002D0FEF7E6FCF1E7FEF7E2FCEEE7000063
:1024500000E800FE0000FFFF70B50025044680F88C
:10246000425090F841102820292911D094F84110A9
:102470002A290CD184F84100222020630221204621
:10248000FFF7A6FD84F840502046FEF7C1FC70BD62
:1024900084F841002120206301212046FFF798FDA8
:1024A00084F840502046FEF7B4FC70BD2DE9F041A1
:1024B0000446006890460E468069C043C00633D487
:1024C0000025202720688069C043800615D5701C30
:1024D000F8D0FEF751FAA0EB0800B04201D8002E68
:1024E000F0D154F8440F40F0200044F8040967701C
:1024F000A57025700120BDE8F08121681020C86119
:102500002068C7612046FFF7BBFD54F8440B4168C3
:10251000064A11404160206840F0040044F8200958
:102520006777A5772577E5E70020E4E700E800FE78
:10253000F8B5044690F8400001281AD0012084F82C
:102540004000CB43DE064FF000056FEA020012D4D4
:10255000C20610D421681020C861606C40F00400ED
:10256000606412212046FFF75DFD2046FFF788FDDD
:102570005FE00220F8BD314A1E0638D4460636D444
:102580002068016821F040010160608D002820680A
:10259000406829D0C0F30901608DFF2804D9FF20CD
:1025A00020854FF0807308E0608D2085E06A9042BE
:1025B00001D0E36A01E04FF00073009594F8282001
:1025C000204600F02FFA608D218D401A608594F826
:1025D000410022282068016803D041F48041016055
:1025E00027E041F40041FAE7800117D505E05E06D7
:1025F00018D4460616D4608D20B140212046FFF73E
:1026000095FD16E020684168890112D4E16A914283
:1026100004D1416841F4804141600AE02046FFF75F
:102620007FFE06E09A0604D4800602D42046FFF717
:102630001DFE84F840500020F8BD00000000FFFFA0
:102640002DE9F843044690F840008846012817D049
:10265000012084F840006FEA0806F0064FF00007FA
:102660006FEA02050FD4E8060DD421681020C86176
:10267000606C40F0040060642046FFF701FD54E008
:102680000220BDE8F883700706D4680704D42068E8
:10269000406A616A087007E0B0070FD4A8070DD43C
:1026A000606A216800788862606A401C6062208DE0
:1026B000401E2085608D401E608536E0294A300628
:1026C00029D4680627D4608D08B1208D20B12068F8
:1026D0004068800141D524E020684068C0F30901CA
:1026E000608DFF2805D9FF2222854FF08073009767
:1026F0000DE0608D2085E06A0097904203D0E36A88
:1027000094F8282003E094F828204FF00073204626
:1027100000F088F909E0700607D4680605D4608DDA
:1027200078B140212046FFF701FDB00605D4A80688
:1027300003D441462046FFF799FD84F840700020FD
:102740009FE7206841688901EFD4E16A914204D192
:10275000416841F480414160E7E72046FFF7E0FD32
:10276000E3E700000000FFFF2DE9F84304461646AA
:10277000DDE9089714489846DAB200900023204615
:1027800000F050F93A464946204600F0B3F9B8B98E
:10279000F5B2B8F1010F08D02168300A88623A46D4
:1027A0004946204600F0A6F950B9206885624B469C
:1027B000002240212046009700F04AF9002800D06E
:1027C0000120BDE8F8830000002000802DE9F843D7
:1027D0000446164615489846DDE90897DAB2C30262
:1027E0000090204600F01EF93A464946204600F087
:1027F00081F9B8B9F5B2B8F1010F08D02168300AF3
:1028000088623A464946204600F074F950B920687B
:1028100085624B46002280212046009700F018F97F
:10282000002800D00120BDE8F883000000200080CF
:102830002DE9F041C36A044690F8400000250128C4
:1028400015D0012084F84000CE43F7066FEA02005D
:1028500045D4C20643D446044FF0100201D500040B
:102860003AD4E06B38B10068406818B103E0022048
:10287000BDE8F0810125A06B10B10068406800B18F
:10288000DDB194F84100282802D1B3F1007F04D0D3
:1028900094F84100292804D01EE02046FFF7B6FC3A
:1028A0002CE013F5803F17D02068C2612046FFF767
:1028B000E7FB2046FFF7D0FD20E02068C261606C96
:1028C00040F00400606413B1B3F1807F16D1616CF5
:1028D0002046FFF72BFC11E02068C2610EE03207B2
:1028E00005D4020703D42046FFF7DBFB06E0B2065F
:1028F00004D4800602D42046FFF738FD002084F877
:102900004000B5E72DE9F0410446C06A0F4694F84F
:10291000401001291DD0012184F84010FE43404B96
:10292000F1064FF0807C6FEA020531D4E9062FD41E
:10293000628D102182B12268D161616C41F0040185
:10294000616408B160455ED1616C2046FFF7EEFB23
:1029500059E00220BDE8F08194F84120282A02D1F4
:10296000B0F1007F04D094F84120292A05D00CE072
:1029700039462046FFF74AFC45E0984205D02068DA
:10298000C1612046FFF77CFB3AE02068C1613AE074
:10299000710715D4690713D4618D61B12168496A43
:1029A000626A1170616A491C6162218D491E21852C
:1029B000618D491E6185618D29BB984220D122E03D
:1029C000310706D4290704D439462046FFF769FBAE
:1029D00019E0B10717D4A90715D4618D69B1606AF0
:1029E000216800788862606A401C6062608D401EC9
:1029F0006085208D401E208505E0604500D010B91F
:102A00002046FFF729FDB00605D4A80603D43946B1
:102A10002046FFF7ABFC002084F840009AE7000056
:102A20000000FFFFF0B50568059C68684FF48066FC
:102A3000064FC1F3090106EA545641EA02413E43FA
:102A40001943B043214308436860F0BDFF63FF03AF
:102A50002DE9F0411D4617460E460446DDF8188064
:102A600008E0681C06D0FDF787FFA0EB0800A8422D
:102A70000BD855B12068806936EA000012D00020DA
:102A8000B842EED00020BDE8F08154F8440F40F089
:102A9000200044F80409202060700020A0702070FD
:102AA0000120F0E70120EBE770B516460D4604461D
:102AB0000DE0324629462046FFF7F8FC08B1012018
:102AC00070BDFDF759FF801BA84207D835B12068BB
:102AD0008069C0438006ECD4002070BD54F8440FD8
:102AE00040F0200044F80409202060700020A0700D
:102AF0002070E4E770B516460D4604460FE03246F6
:102B000029462046FFF7D2FC08B1012070BD681CA1
:102B100005D0FDF731FF801BA84207D835B12068EA
:102B20008069C0438007EAD4002070BD54F8440F88
:102B300040F0200044F80409202060700020A070BC
:102B40002070E2E730B5174887B0C16C41F0100142
:102B5000C164C16C01F010010591C16C41F0080124
:102B6000C164C16C01F008010591C16C41F0020122
:102B7000C164C06C0C4D00F002004FF4704405902D
:102B8000002221462846FDF7F2FE01200021009494
:102B9000CDE90101039169462846FDF703FE07B020
:102BA00030BD00000010024000100048114810B570
:102BB0000F4901601049416000210122C0E9021261
:102BC000016141618161C1610162FDF76FFF00B187
:102BD000FEE700210748FDF7D5FE00B1FEE7002122
:102BE0000448FDF7FAFE002800D0FEE710BD000003
:102BF00000540040400000204713300010B5124838
:102C000088B04FF08041016009210024C0E901141F
:102C10000E49C0E903148461FEF750FF00B1FEE7DE
:102C20004FF48050039003A90748FEF7ABFF00B1B3
:102C3000FEE70094694604480294FEF70FFF00285F
:102C400000D0FEE708B010BD8C0000203F420F000E
:102C500010B5134888B0114901604F210024C0E924
:102C6000011440F2E731C0E903148461FEF726FF46
:102C700000B1FEE74FF48050039003A90848FEF727
:102C800081FF00B1FEE70094694605480294FEF713
:102C9000E5FE002800D0FEE708B010BD00040040AB
:102CA000CC0000200C4810B50A4901604FF4E13116
:102CB0004160002181600C22C160C0E90412816181
:102CC000C16101624162FFF7AEF8002800D0FEE763
:102CD00010BD0000004400400C010020FEE77047DA
:102CE0000907090E002806DA00F00F0000F1E020C5
:102CF00080F8141D704700F1E02080F80014704740
:102D0000704700002DE9F041444C05468846E068D4
:102D10000026810728680DD0E16801F00301814297
:102D200016D1A8B1E0686968C0F30210401C88425F
:102D30000ED120E0012804D0022805D0032807D1B5
:102D400008E02168890701E021684905002907DBBF
:102D500001265FE02168890302D421684903F5E771
:102D6000E1686A686FF00F0321F0730103EB021250
:102D700011430143E160206820F080602060FDF78E
:102D8000FBFD074605E000BFFDF7F6FDC01B02286E
:102D900037D820680001F7D4B8F1000F18D0B8F187
:102DA000010F1ED0287D4FF07E41400801EB4060AE
:102DB000A96840EA01202169194A114008432061AD
:102DC000206840F080602060FDF7D6FD07461AE0DD
:102DD000A868E9680002090940EA41402169114AEE
:102DE000EBE7288A1049400801EB4050A96840EA07
:102DF000012021690D4AE0E7FDF7BEFDC01B022856
:102E000001D9032606E020680001F5D52069A969EB
:102E1000084320613046BDE8F08100000010024008
:102E2000FF80FFF9FF80FDFF0000E0FFFF809FFFB4
:102E30002DE9F0413D4C06468846E06800258107B3
:102E400030680DD0E16801F00301814216D1A8B1CC
:102E5000E0687168C0F30210401C88420ED120E087
:102E6000012804D0022805D0032807D108E02168F2
:102E7000890701E021684905002907DB012551E0A8
:102E80002168890302D421684903F5E7E168726883
:102E90006FF00F0321F0730103EB021211430143A2
:102EA000E160206820F080502060FDF765FD074656
:102EB00005E000BFFDF760FDC01B022829D820688F
:102EC0008000F7D4B8F1000F15D0307C4FF07E4170
:102ED000400801EB4060B16840EA01206169144A92
:102EE000114008436061206840F080502060FDF789
:102EF00043FD07460FE0B068F1680002090940EAA7
:102F0000414061690B4AEBE7FDF736FDC01B022823
:102F100001D9032506E020688000F5D56069716954
:102F2000084360612846BDE8F081000000100240BF
:102F3000FF80FFF9FF80FDFFF8B51C4D0646002419
:102F4000A86DC00002D5FEF747F80DE0A86D40F06F
:102F50008050A865A86D00F080500090FEF73CF806
:102F6000A96D21F08051A965B0F5007F04D0802EB5
:102F700007D94FF003040AE0802E08D9A02E01D80B
:102F800004E001D1022402E0702E00D1012408489F
:102F9000016821F0070121430160006800F007008B
:102FA000A04201D00120F8BD0020F8BD0010024071
:102FB00000200240704700007FB520238DF80010EC
:102FC0003A218DF801108DF80230002804DA4042D1
:102FD0002D218DF8031001E08DF8033009210D4EED
:102FE0006D460A2290FBF2F402FB1404E4B290FB5B
:102FF000F2F0345D6C54491E0329F3DC8DF80A307D
:103000008DF80B300C231A4629460348FEF766FF5D
:103010007FBD0000104000080C01002010B5FDF736
:10302000F9FEBDE81040FEF712BD10B5B8B00220A1
:10303000C10125911021229026912C900121CDE9EA
:103040002D010A212F910721CDE930100420329063
:1030500022A8FEF7A9FA00B1FEE70F200024339062
:103060000320CDE934043694022133A83794FEF7C7
:1030700093F900B1FEE70F94422014940090684643
:10308000FDF7B2FF00B1FEE74FF40070FDF770FFEF
:1030900000B1FEE7FEF70CFA4FF47A71B0FBF1F0E5
:1030A000FEF7C1FC0420FEF7B1FC00221146501EC1
:1030B000FDF72CFF38B010BD0D48016841F47001D8
:1030C00001600C48016841F001010160002181604C
:1030D0000268094B1A4002608214C260026822F43E
:1030E0008022026081610249C00380390860704714
:1030F00088ED00E000100240FFFFF6EA0148FEF70D
:10310000B8BD00008C0000200148FEF7B2BD0000F1
:10311000CC0000202DE9F0470268264B264D274EB3
:10312000274F284C4FF0804A984209D0504507D08D
:10313000A84205D0B04203D0B84201D0A04204D189
:1031400022F0700C4A6842EA0C02DFF87CC0DFF81B
:103150007C80DFF87C9098420FD050450DD0A8427B
:103160000BD0B04209D0B84207D0A04205D060458C
:1031700003D0404501D0484503D122F44075CA68C8
:103180002A434D6922F080022A4302608A68C262A3
:103190000A688262984207D0A04205D0604503D0F9
:1031A000404501D0484501D10969016301214161D0
:1031B000BDE8F087002C01400004004000080040FA
:1031C000000C004000340140004001400044014038
:1031D0000048014010B5846842EA032224F47F4489
:1031E0000A432243826010BD826822F070020A43C3
:1031F00042F007018160704710B5036A046A24F049
:1032000001040462846924F0F00444EA021423F007
:103210000A020A438461026210BD10B5036A23F0FA
:10322000100303628369046A23F4704343EA0232A1
:1032300024F0A00343EA01118261016210BD90F8FD
:103240002410C90706D001684A68836A22F4003254
:103250001A434A6090F82410890706D501684A6825
:10326000C36A22F480321A434A6090F82410490756
:1032700006D501684A68036B22F480221A434A602B
:1032800090F82410090706D501684A68436B22F4B8
:1032900000421A434A6090F82410C90606D5016816
:1032A0008A68836B22F480521A438A6090F8241053
:1032B000890606D501688A68C36B22F400521A4356
:1032C0008A6090F82410490611D501684A68036C99
:1032D00022F480121A434A60016CB1F5801F06D1B6
:1032E00001684A68436C22F4C0021A434A6090F8AD
:1032F0002410090606D501684A68806C22F4002271
:1033000002434A607047F8B5002604464667FDF759
:1033100033FB0546206800686FF07E47000708D53C
:103320002B4600224FF400112046009700F06AF966
:1033300060B92068006840070AD52B4600224FF488
:1033400080012046009700F05DF908B10320F8BD28
:10335000202084F8710084F8720084F870600020E6
:10336000F8BD00002DE9F04104460168806823693A
:10337000E669184363691025002733431843954ACB
:103380000B68954E334003430B6020684168E36847
:1033900021F44051194341602168A069914201D054
:1033A000236A18438B6823F4306303438B608B4B91
:1033B00021688B4899420DD1D0F8880010F00300A5
:1033C00006D001285AD0022856D0032859D157E0F8
:1033D000012556E0834B99420BD1D0F8880010F0BC
:1033E0000C0047D0042849D0082845D00C2848D1E3
:1033F00046E07D4B99420BD1D0F8880010F03000A8
:1034000038D010283AD0202836D0302839D137E0AB
:10341000764B99420BD1D0F8880010F0C00029D02B
:1034200040282BD0802827D0C0282AD128E0704BF4
:1034300099420ED1D0F8880010F440701AD0B0F53F
:10344000807F1BD0B0F5007F16D0B0F5407F18D13B
:1034500016E0914215D1D0F8880010F4406009D0F0
:10346000B0F5806F0AD0B0F5006F05D0B0F5406FB1
:1034700007D105E0002504E0022502E0042500E074
:1034800008255C4B00264FF4004091423DD135B1F8
:10349000022D07D0042D07D0082D10D107E0FEF72C
:1034A0000DF803E0184602E0FEF72CF8A8B36268B6
:1034B00002EB4201814202D8B0EB023F01D9012761
:1034C00075E0DFF834815DB1022D0CD0042D13D0EE
:1034D000082DF4D150082905401846F1000105E0F7
:1034E000FDF7ECFF0AE050084449F5E70023FCF73C
:1034F00067FEA0F5407156E0FEF704F86268010E21
:103500000302500818187141F0E7E1694FF6EF78AF
:1035100081422FD1092DD2D200E048E0DFE805F04A
:1035200006092005230505052600C8E7FDF7C6FFA7
:1035300001E0FDF7D5FF4100D4F8040001EB500194
:10354000B1FBF0F080B2A0F110014145B7D84FF6C1
:10355000F0710140C0F3420001432068C16026E0E1
:1035600027496068EAE7FDF7CDFFE4E74FF48031D3
:103570006068E3E7092DA2D2DFE805F006091E0521
:103580002205050525009AE7FDF798FF01E0FDF704
:10359000A7FF0146606801EB500100BFB1FBF0F0EE
:1035A00080B2A0F11001414589D82168C860266623
:1035B00038466666BDE8F081606803EB5001EDE7D0
:1035C000FDF7A0FFE5E7616800EB5100B0FBF1F00B
:1035D000E6E7000000800040F369FFEF003801409B
:1035E000001002400044004000480040004C0040F1
:1035F000005000400024F400FFFC0F00000024F401
:103600000048E8012DE9F041984617460E46044669
:10361000069D1DE0681C1BD02DB1FDF7ADF9A0EB98
:103620000800A84214D92068016821F4D071016013
:103630002068816821F001018160202084F87100F8
:1036400084F87200002084F870000320BDE8F08147
:103650002068C06936EA000004D00020B842D9D002
:103660000020F3E70120F9E7FEE703B401984100E9
:10367000009850EAC12018BF04204A0D18BF40F03E
:10368000010040F2FF72B2EB515F08BF40F0020050
:10369000012808BF052002B07047000000000000AC
:1036A00070B59B482DED020B2DED068B079D25F087
:1036B0000044A04218DC9748844202DC0AD10698F4
:1036C00040B19DED060BBDEC068B02B0BDE870402D
:1036D00000F0C6BA002DCCBF9FED8F0B9FED900B75
:1036E000BDEC068B02B070BD8F48A04215DD8F483F
:1036F000A042D8BF4FF0FF3458DD9DED060B51ECD2
:10370000100BFFF7B2FF042808BF00F0BDFA9DEDD3
:10371000060BBDEC068B02B070BD9DED060B51ECA7
:10372000100B00F0D8FACDE9060181489FED828B9D
:10373000A0423CDD8248A0421FDD00249FED82AB09
:103740009DED060B53EC1A2B51EC100BFCF76CFDA6
:103750009DED060B41EC190B53EC1A2B51EC100BA1
:10376000FCF711FE53EC182BFCF7FFFD53EC192B63
:10377000FCF77EFECDE9060149E09DED060B012434
:1037800053EC182B51EC100BFCF74EFD9DED060B86
:1037900041EC190B53EC182B51EC100BFCF7E5FD29
:1037A00053EC192BFCF764FECDE906012FE06848C5
:1037B000A0421FDD02249FED689B9DED060B53EC9C
:1037C000192B51EC100BFCF7DEFD53EC182BFCF71A
:1037D0002BFD9DED060B41EC180B53EC192B51EC16
:1037E000100BFCF7C2FD53EC182BFCF741FECDE9A2
:1037F00006010CE09DED060B032453EC102B9FED0E
:10380000580B51EC100BFCF733FECDE906019DED92
:10381000060B53EC102B51EC100BFCF7B4FD41ECF4
:10382000180B53EC182BFCF7AEFD41EC190B4E486E
:103830000621B0EE490AF0EE690A784400F094F9E6
:1038400053EC182B51EC100BFCF79DFD41EC180BC1
:103850004648B0EE490AF0EE690A0521784400F0C6
:1038600083F953EC192B51EC100BFCF78CFD41EC58
:10387000100B51EC180B53EC102B002C0EDAFCF74C
:10388000D3FC9DED061B53EC112BFCF77CFD9DED4D
:10389000061B53EC112BFCF76BFD35E0FCF7C4FC69
:1038A0009DED061B53EC112BFCF76DFD41EC100B4D
:1038B0002F48784400EBC40090ED001B51EC100B36
:1038C00053EC112BFCF751FD9DED061B53EC112B16
:1038D000FCF74BFD41EC100B2648784400EBC4008C
:1038E00090ED001B51EC100B53EC112BFCF740FD3D
:1038F00041EC100B002DA2BFBDEC068B02B070BDD9
:1039000051EC100B81F0004141EC100B01E700007D
:10391000000010440000F07F182D4454FB21F93FB3
:10392000182D4454FB21F9BF0000DC3F0000203E6D
:103930000000F33F00000000000000000000F03F26
:103940000000E63F00000000000000000000004012
:103950000080034000000000000000000000F83F6D
:10396000000000000000F0BF9208000048080000BE
:10397000D20700008A07000070B56B4E2DED040BD6
:103980002DED028B82B0DDF81CC0DDE905235C4221
:103990002CF000411C4341EAD474049D22F0004005
:1039A000B44205D86C422C4340EAD474B4420BD9DB
:1039B0009DED061B9DED040B02B0BDEC028B04B027
:1039C000BDE8704000F056B9ACF14054A4F17F64FA
:1039D0001C430BD0022404EAAC7444EAD2740543BD
:1039E0009FED538B9FED542B07D015E09DED040BFD
:1039F00051EC100B00F067F942E0002C11BF012CD4
:103A00009DED040B02B0BDEC028B04BF04B070BD91
:103A1000022C38D0032C3BD00B439FED491B9FED6C
:103A20004A0B0AD0B14218D1B04209D121F08041ED
:103A300020F08040079105900FE0002A15DA10E091
:103A4000434B7B44002C08BF93ED000B0DD0012CA1
:103A500010D0022C17D0032C1AD0B0421DD1002A4E
:103A600003DAB0EE410AF0EE610A02B0BDEC028B5F
:103A700004B070BD93ED000B51EC100B81F00041D0
:103A800041EC100BF1E7B0EE480AF0EE680AECE703
:103A9000B0EE420AF0EE620AE7E7401A00153C2851
:103AA000C8BF8DED000B19DCBCF1000FBEBF10F1DB
:103AB0003C0F9FED290B8DED000B0FDB9DED060BF1
:103AC00053EC102B9DED040B51EC100BFCF7D0FCCC
:103AD00000F001F900F0F7F8CDE90001002C08BF73
:103AE0009DED000BC1D0012C10D0022C9FED1C0BC2
:103AF00053EC102B9DED000B51EC100B0DD0FCF78F
:103B000034FC53EC182BFCF730FCB9E7019880F03B
:103B1000004001909DED000BA7E7FCF726FC53EC5D
:103B2000182BFCF725FCABE70000F07F000000003D
:103B3000182D4454FB210940182D4454FB2109C081
:103B4000182D4454FB21F9BF182D4454FB21F93F93
:103B5000BA060000000000000000000000000000A5
:103B6000075C143326A6A13C70B504462DED028BEC
:103B70004D1E00EBC500B0EE408AF0EE608A90ED7D
:103B8000000B35F0060017D053EC182B51EC100B3E
:103B9000FCF7F9FB41EC100B6D1E04EBC50090ED3A
:103BA000001B51EC100B53EC112BFCF73DFB41ECCF
:103BB000100B35F00600E7D1022D36D0042D1CD0B5
:103BC000062D1CBFBDEC028B70BD53EC182B51ECC5
:103BD000100BFCF7D8FB94ED0A1B53EC112BFCF7F0
:103BE00023FB53EC182BFCF7CEFB94ED081B53EC96
:103BF000112BFCF719FB41EC100B53EC182B51EC7B
:103C0000100BFCF7C0FB94ED061B53EC112BFCF7DB
:103C10000BFB53EC182BFCF7B6FB94ED040B53ECA9
:103C2000102BFCF701FB41EC100B53EC182B51EC63
:103C3000100BFCF7A8FB94ED021B53EC112BFCF7C7
:103C4000F3FA53EC182BFCF79EFB94ED001B53EC9E
:103C5000112BFCF7E9FABDEC028B41EC100B70BDA7
:103C600010B553EC102B51EC100BFCF7DDFA41ECC6
:103C7000100B10BD10B553EC112B51EC100BFCF7D1
:103C8000D3FA41EC100B10BD9FED050B10B553ECB2
:103C9000102B51EC100BFCF776FB41EC100B10BD18
:103CA000000000000000001002E008C8121F08C158
:103CB000002AFAD170477047002001E001C1121FAD
:103CC000002AFBD1704710B541EC100BFFF7E8FC60
:103CD00051EC100B10BD82B0CDE9000121F0004085
:103CE00001909DED000B02B051EC100B70470000ED
:103CF00010B50A23072208490848FEF7EFF80748DD
:103D00008038FDF727FF05484038FDF723FFBDE861
:103D1000104000F005B80000100000200C01002049
:103D20001FB500208DF80C0001210A2203A88DE8A0
:103D300007000B466B22D2210148FCF783FF1FBD11
:103D400040000020FDF76EF8FFF76FF9FEF7FAFE6E
:103D5000FEF72CFFFEF752FFFEF77AFFFEF7A2FFF9
:103D6000FFF7C6FF00F00CF8FCE700000A2304226E
:103D700001490248FEF7B2B8060000200C010020FD
:103D800010B5104C94ED080B51EC100BFCF7F0FB48
:103D90006721FFF711F994ED0A0B51EC100BFCF7BA
:103DA000E7FB6321FFF708F994ED060B51EC100BCC
:103DB000FCF7DEFB6121FFF7FFF8BDE81040FFF7DD
:103DC000D5BF00000000002010B55048504C2DED2C
:103DD000048B82B04178027801EB02212180417985
:103DE000027901EB02216180C17A827A01EB022122
:103DF000A1800E21CDE9000101233B22D221A0F5B3
:103E0000A270FCF7B5FEB4F90200FCF7A0FB41EC90
:103E1000180BB4F900004042FCF799FB41EC100B81
:103E2000B0EE481AF0EE681AFFF7A6FD9FED399B39
:103E300051EC100B53EC192BFCF7A5FA41EC100BCD
:103E400084ED0A0BB4F90400FCF781FB9FED331BF2
:103E500053EC112BFCF797FA9FED321B53EC112B0F
:103E6000FCF706FB41EC100B84ED0C0B94ED0C0BF6
:103E700053EC102B94ED080B51EC100BFCF7D4F91C
:103E80009FED2A0BC4E9080153EC102B94ED0A0BAB
:103E900051EC100BFCF777FA94ED0C0B41EC180B7E
:103EA00053EC102B94ED060B51EC100BFCF7BCF906
:103EB0009FED201B53EC112BFCF765FA53EC182BEC
:103EC000FCF7B2F953EC192BFCF7D2FA41EC100BCA
:103ED00084ED060B94ED060B51EC100BFCF748FB40
:103EE00000F030F89FED150B53EC102B94ED060B02
:103EF00051EC100BFCF747FA02B041EC100BBDEC93
:103F0000048BBDE8104000F033B8000084010020AD
:103F1000000000200000000000408F4091D4A85312
:103F2000ECF737400000000000F9F5400000000009
:103F3000000014400000000000188F400000000046
:103F4000000059400849CA680849904203DD4869A1
:103F500040F4204005E05242904203DA486920F4E0
:103F60002040486170470000000000200010004819
:103F700010B52DED028BB0EE408AF0EE608A9FED19
:103F80001A0B51EC180B53EC102BFCF729FB05D244
:103F900051EC180B81F0004141EC180B9FED140B14
:103FA00051EC180B53EC102BFCF7EDF941EC100B16
:103FB00053EC102B9FED100B51EC100BFCF758FA43
:103FC000FCF7F5FA282800D228204FF08041C8627B
:103FD000486ACA6A904203D9486940F001004861C2
:103FE000BDEC028B10BD00000000000000000000CE
:103FF000000000000000244000000000D0128341B7
:104000000248416981F4A0414161704700100048B5
:1040100030313233343536373839414243444546FE
:104020000000000000000000010203040607080968
:10403000A0860100400D0300801A060000350C0028
:1040400040420F0080841E0000093D0000127A00EB
:104050000024F40000366E010048E801006CDC0228
:1040600000000000010203044FBB610567ACDD3FA7
:10407000182D4454FB21E93F9BF681D20B73EF3F8F
:10408000182D4454FB21F93FE2652F227F2B7A3C07
:10409000075C143326A6813CBDCBF07A8807703CC0
:1040A000075C143326A6913CC4EB98999999C9BF33
:1040B000711623FEC671BCBF6D9A74AFF2B0B3BF68
:1040C0009AFDDE522DDEADBF2F6C6A2C44B4A2BF28
:1040D0000D5555555555D53FFF8300922449C23F94
:1040E0006E204CC5CD45B73F513DD0A0660DB13FC8
:1040F000EB0D76244B7BA93F11DA22E33AAD903FDA
:10410000000000000000000028410008000000201E
:1041100040000000A83C0008684100084000002062
:1041200058050000B83C00080000000000002020F6
:104130000A0D00000000000048656C6C6F0D0A005D
:10414000000000000000000000000000000000006F
:10415000000000000000000000000000000000005F
:084160000000000000093D0011
:040000050800018965
:00000001FF
